{
  "contractName": "Voting",
  "abi": [
    {
      "anonymous": false,
      "inputs": [
        {
          "indexed": true,
          "internalType": "uint256",
          "name": "electionId",
          "type": "uint256"
        },
        {
          "indexed": true,
          "internalType": "uint256",
          "name": "candidateId",
          "type": "uint256"
        },
        {
          "indexed": false,
          "internalType": "string",
          "name": "name",
          "type": "string"
        }
      ],
      "name": "CandidateAdded",
      "type": "event"
    },
    {
      "anonymous": false,
      "inputs": [
        {
          "indexed": true,
          "internalType": "uint256",
          "name": "electionId",
          "type": "uint256"
        },
        {
          "indexed": false,
          "internalType": "string",
          "name": "name",
          "type": "string"
        },
        {
          "indexed": false,
          "internalType": "string",
          "name": "startDate",
          "type": "string"
        },
        {
          "indexed": false,
          "internalType": "string",
          "name": "endDate",
          "type": "string"
        }
      ],
      "name": "ElectionCreated",
      "type": "event"
    },
    {
      "anonymous": false,
      "inputs": [
        {
          "indexed": true,
          "internalType": "uint256",
          "name": "electionId",
          "type": "uint256"
        },
        {
          "indexed": true,
          "internalType": "uint256",
          "name": "candidateId",
          "type": "uint256"
        },
        {
          "indexed": false,
          "internalType": "address",
          "name": "voter",
          "type": "address"
        }
      ],
      "name": "Voted",
      "type": "event"
    },
    {
      "inputs": [],
      "name": "electionCount",
      "outputs": [
        {
          "internalType": "uint256",
          "name": "",
          "type": "uint256"
        }
      ],
      "stateMutability": "view",
      "type": "function",
      "constant": true
    },
    {
      "inputs": [
        {
          "internalType": "uint256",
          "name": "",
          "type": "uint256"
        }
      ],
      "name": "elections",
      "outputs": [
        {
          "internalType": "uint256",
          "name": "id",
          "type": "uint256"
        },
        {
          "internalType": "string",
          "name": "name",
          "type": "string"
        },
        {
          "internalType": "string",
          "name": "startDate",
          "type": "string"
        },
        {
          "internalType": "string",
          "name": "endDate",
          "type": "string"
        },
        {
          "internalType": "uint256",
          "name": "candidateCount",
          "type": "uint256"
        }
      ],
      "stateMutability": "view",
      "type": "function",
      "constant": true
    },
    {
      "inputs": [
        {
          "internalType": "string",
          "name": "_name",
          "type": "string"
        },
        {
          "internalType": "string",
          "name": "_startDate",
          "type": "string"
        },
        {
          "internalType": "string",
          "name": "_endDate",
          "type": "string"
        }
      ],
      "name": "createElection",
      "outputs": [],
      "stateMutability": "nonpayable",
      "type": "function"
    },
    {
      "inputs": [
        {
          "internalType": "uint256",
          "name": "_electionId",
          "type": "uint256"
        },
        {
          "internalType": "string",
          "name": "_name",
          "type": "string"
        }
      ],
      "name": "addCandidate",
      "outputs": [],
      "stateMutability": "nonpayable",
      "type": "function"
    },
    {
      "inputs": [
        {
          "internalType": "uint256",
          "name": "_electionId",
          "type": "uint256"
        },
        {
          "internalType": "uint256",
          "name": "_candidateId",
          "type": "uint256"
        }
      ],
      "name": "vote",
      "outputs": [],
      "stateMutability": "nonpayable",
      "type": "function"
    },
    {
      "inputs": [
        {
          "internalType": "uint256",
          "name": "_electionId",
          "type": "uint256"
        },
        {
          "internalType": "uint256",
          "name": "_candidateId",
          "type": "uint256"
        }
      ],
      "name": "getCandidate",
      "outputs": [
        {
          "internalType": "uint256",
          "name": "",
          "type": "uint256"
        },
        {
          "internalType": "string",
          "name": "",
          "type": "string"
        },
        {
          "internalType": "uint256",
          "name": "",
          "type": "uint256"
        }
      ],
      "stateMutability": "view",
      "type": "function",
      "constant": true
    },
    {
      "inputs": [
        {
          "internalType": "uint256",
          "name": "_electionId",
          "type": "uint256"
        }
      ],
      "name": "hasVoted",
      "outputs": [
        {
          "internalType": "bool",
          "name": "",
          "type": "bool"
        }
      ],
      "stateMutability": "view",
      "type": "function",
      "constant": true
    }
  ],
  "bytecode": "0x608060405234801561001057600080fd5b50610f4c806100206000396000f3fe608060405234801561001057600080fd5b506004361061007d5760003560e01c80635e6fef011161005b5780635e6fef01146100ec578063997d283014610120578063b384abef1461013e578063ecca031f1461015a5761007d565b80631750a3d0146100825780634a6cf3a91461009e5780634bd46448146100ba575b600080fd5b61009c60048036038101906100979190610a0b565b61018a565b005b6100b860048036038101906100b39190610a67565b610269565b005b6100d460048036038101906100cf9190610b0e565b610333565b6040516100e393929190610be5565b60405180910390f35b61010660048036038101906101019190610c23565b610430565b604051610117959493929190610c50565b60405180910390f35b6101286105fe565b6040516101359190610cb8565b60405180910390f35b61015860048036038101906101539190610b0e565b610604565b005b610174600480360381019061016f9190610c23565b61076f565b6040516101819190610cee565b60405180910390f35b600080600084815260200190815260200160002090508060040160008154809291906101b590610d38565b91905055506040518060600160405280826004015481526020018381526020016000815250816005016000836004015481526020019081526020016000206000820151816000015560208201518160010190805190602001906102199291906107d8565b50604082015181600201559050508060040154837fed8911b3df733b7d5f75724158e54478ea12e30f49c9d31b5261879f5b76586f8460405161025c9190610d80565b60405180910390a3505050565b6001600081548092919061027c90610d38565b91905055506000806000600154815260200190815260200160002090506001548160000181905550838160010190805190602001906102bc9291906107d8565b50828160020190805190602001906102d59291906107d8565b50818160030190805190602001906102ee9291906107d8565b506001547f38b9495e83f1099bcfd023c14793127d0b202129bea63bc11268aeae80f60a3585858560405161032593929190610da2565b60405180910390a250505050565b6000606060008060008087815260200190815260200160002060050160008681526020019081526020016000206040518060600160405290816000820154815260200160018201805461038590610e1d565b80601f01602080910402602001604051908101604052809291908181526020018280546103b190610e1d565b80156103fe5780601f106103d3576101008083540402835291602001916103fe565b820191906000526020600020905b8154815290600101906020018083116103e157829003601f168201915b505050505081526020016002820154815250509050806000015181602001518260400151935093509350509250925092565b600060205280600052604060002060009150905080600001549080600101805461045990610e1d565b80601f016020809104026020016040519081016040528092919081815260200182805461048590610e1d565b80156104d25780601f106104a7576101008083540402835291602001916104d2565b820191906000526020600020905b8154815290600101906020018083116104b557829003601f168201915b5050505050908060020180546104e790610e1d565b80601f016020809104026020016040519081016040528092919081815260200182805461051390610e1d565b80156105605780601f1061053557610100808354040283529160200191610560565b820191906000526020600020905b81548152906001019060200180831161054357829003601f168201915b50505050509080600301805461057590610e1d565b80601f01602080910402602001604051908101604052809291908181526020018280546105a190610e1d565b80156105ee5780601f106105c3576101008083540402835291602001916105ee565b820191906000526020600020905b8154815290600101906020018083116105d157829003601f168201915b5050505050908060040154905085565b60015481565b600080600084815260200190815260200160002090508060060160003373ffffffffffffffffffffffffffffffffffffffff1673ffffffffffffffffffffffffffffffffffffffff16815260200190815260200160002060009054906101000a900460ff16156106a9576040517f08c379a00000000000000000000000000000000000000000000000000000000081526004016106a090610e9a565b60405180910390fd5b60018160060160003373ffffffffffffffffffffffffffffffffffffffff1673ffffffffffffffffffffffffffffffffffffffff16815260200190815260200160002060006101000a81548160ff021916908315150217905550806005016000838152602001908152602001600020600201600081548092919061072c90610d38565b919050555081837fd91ecafccf238642dccd41161308b3eebe62a12bc5819daf5164780c221ec95b336040516107629190610efb565b60405180910390a3505050565b600080600083815260200190815260200160002060060160003373ffffffffffffffffffffffffffffffffffffffff1673ffffffffffffffffffffffffffffffffffffffff16815260200190815260200160002060009054906101000a900460ff169050919050565b8280546107e490610e1d565b90600052602060002090601f016020900481019282610806576000855561084d565b82601f1061081f57805160ff191683800117855561084d565b8280016001018555821561084d579182015b8281111561084c578251825591602001919060010190610831565b5b50905061085a919061085e565b5090565b5b8082111561087757600081600090555060010161085f565b5090565b6000604051905090565b600080fd5b600080fd5b6000819050919050565b6108a28161088f565b81146108ad57600080fd5b50565b6000813590506108bf81610899565b92915050565b600080fd5b600080fd5b6000601f19601f8301169050919050565b7f4e487b7100000000000000000000000000000000000000000000000000000000600052604160045260246000fd5b610918826108cf565b810181811067ffffffffffffffff82111715610937576109366108e0565b5b80604052505050565b600061094a61087b565b9050610956828261090f565b919050565b600067ffffffffffffffff821115610976576109756108e0565b5b61097f826108cf565b9050602081019050919050565b82818337600083830152505050565b60006109ae6109a98461095b565b610940565b9050828152602081018484840111156109ca576109c96108ca565b5b6109d584828561098c565b509392505050565b600082601f8301126109f2576109f16108c5565b5b8135610a0284826020860161099b565b91505092915050565b60008060408385031215610a2257610a21610885565b5b6000610a30858286016108b0565b925050602083013567ffffffffffffffff811115610a5157610a5061088a565b5b610a5d858286016109dd565b9150509250929050565b600080600060608486031215610a8057610a7f610885565b5b600084013567ffffffffffffffff811115610a9e57610a9d61088a565b5b610aaa868287016109dd565b935050602084013567ffffffffffffffff811115610acb57610aca61088a565b5b610ad7868287016109dd565b925050604084013567ffffffffffffffff811115610af857610af761088a565b5b610b04868287016109dd565b9150509250925092565b60008060408385031215610b2557610b24610885565b5b6000610b33858286016108b0565b9250506020610b44858286016108b0565b9150509250929050565b610b578161088f565b82525050565b600081519050919050565b600082825260208201905092915050565b60005b83811015610b97578082015181840152602081019050610b7c565b83811115610ba6576000848401525b50505050565b6000610bb782610b5d565b610bc18185610b68565b9350610bd1818560208601610b79565b610bda816108cf565b840191505092915050565b6000606082019050610bfa6000830186610b4e565b8181036020830152610c0c8185610bac565b9050610c1b6040830184610b4e565b949350505050565b600060208284031215610c3957610c38610885565b5b6000610c47848285016108b0565b91505092915050565b600060a082019050610c656000830188610b4e565b8181036020830152610c778187610bac565b90508181036040830152610c8b8186610bac565b90508181036060830152610c9f8185610bac565b9050610cae6080830184610b4e565b9695505050505050565b6000602082019050610ccd6000830184610b4e565b92915050565b60008115159050919050565b610ce881610cd3565b82525050565b6000602082019050610d036000830184610cdf565b92915050565b7f4e487b7100000000000000000000000000000000000000000000000000000000600052601160045260246000fd5b6000610d438261088f565b91507fffffffffffffffffffffffffffffffffffffffffffffffffffffffffffffffff8203610d7557610d74610d09565b5b600182019050919050565b60006020820190508181036000830152610d9a8184610bac565b905092915050565b60006060820190508181036000830152610dbc8186610bac565b90508181036020830152610dd08185610bac565b90508181036040830152610de48184610bac565b9050949350505050565b7f4e487b7100000000000000000000000000000000000000000000000000000000600052602260045260246000fd5b60006002820490506001821680610e3557607f821691505b602082108103610e4857610e47610dee565b5b50919050565b7f416c726561647920766f74656400000000000000000000000000000000000000600082015250565b6000610e84600d83610b68565b9150610e8f82610e4e565b602082019050919050565b60006020820190508181036000830152610eb381610e77565b9050919050565b600073ffffffffffffffffffffffffffffffffffffffff82169050919050565b6000610ee582610eba565b9050919050565b610ef581610eda565b82525050565b6000602082019050610f106000830184610eec565b9291505056fea2646970667358221220045bd772abce7861ab4654d52af4a37eff46d255a2bc92fc992aa1f1c44cd6a564736f6c634300080d0033",
  "immutableReferences": {},
  "source": "// SPDX-License-Identifier: UNLICENSED\r\npragma solidity ^0.8.0;\r\n\r\ncontract Voting {\r\n    struct Candidate {\r\n        uint id;\r\n        string name;\r\n        uint voteCount;\r\n    }\r\n\r\n    struct Election {\r\n        uint id;\r\n        string name;\r\n        string startDate;\r\n        string endDate;\r\n        uint candidateCount;\r\n        mapping(uint => Candidate) candidates;\r\n        mapping(address => bool) voters;\r\n    }\r\n\r\n    mapping(uint => Election) public elections;\r\n    uint public electionCount;\r\n\r\n    event ElectionCreated(uint indexed electionId, string name, string startDate, string endDate);\r\n    event CandidateAdded(uint indexed electionId, uint indexed candidateId, string name);\r\n    event Voted(uint indexed electionId, uint indexed candidateId, address voter);\r\n\r\n    function createElection(string memory _name, string memory _startDate, string memory _endDate) public {\r\n        electionCount++;\r\n        Election storage newElection = elections[electionCount];\r\n        newElection.id = electionCount;\r\n        newElection.name = _name;\r\n        newElection.startDate = _startDate;\r\n        newElection.endDate = _endDate;\r\n        \r\n        emit ElectionCreated(electionCount, _name, _startDate, _endDate);\r\n    }\r\n\r\n    function addCandidate(uint _electionId, string memory _name) public {\r\n        Election storage election = elections[_electionId];\r\n        election.candidateCount++;\r\n        election.candidates[election.candidateCount] = Candidate(election.candidateCount, _name, 0);\r\n\r\n        emit CandidateAdded(_electionId, election.candidateCount, _name);\r\n    }\r\n\r\n    function vote(uint _electionId, uint _candidateId) public {\r\n        Election storage election = elections[_electionId];\r\n        require(!election.voters[msg.sender], \"Already voted\");\r\n        \r\n        election.voters[msg.sender] = true;\r\n        election.candidates[_candidateId].voteCount++;\r\n        \r\n        emit Voted(_electionId, _candidateId, msg.sender);\r\n    }\r\n\r\n    function getCandidate(uint _electionId, uint _candidateId) public view returns (uint, string memory, uint) {\r\n        Candidate memory candidate = elections[_electionId].candidates[_candidateId];\r\n        return (candidate.id, candidate.name, candidate.voteCount);\r\n    }\r\n\r\n    function hasVoted(uint _electionId) public view returns (bool) {\r\n        return elections[_electionId].voters[msg.sender];\r\n    }\r\n}\r\n",
  "sourcePath": "C:\\Users\\javier\\Desktop\\Proyecto\\VotingApp\\contracts\\Voting.sol",
  "compiler": {
    "name": "solc",
    "version": "0.8.13+commit.abaa5c0e.Emscripten.clang"
  },
  "schemaVersion": "3.4.16",
  "updatedAt": "2024-06-21T07:34:34.547Z",
  "networkType": "ethereum",
  "devdoc": {
    "kind": "dev",
    "methods": {},
    "version": 1
  },
  "userdoc": {
    "kind": "user",
    "methods": {},
    "version": 1
  }
}